:020000040800F2
:10000000FCFF042079490108354E0108354E0108EE
:10001000354E0108354E0108354E0108354E0108B0
:10002000354E0108354E0108354E0108354E0108A0
:10003000354E0108354E0108354E0108354E010890
:10004000354E0108354E0108354E0108354E010880
:10005000354E0108354E0108354E0108354E010870
:10006000354E0108354E0108354E0108354E010860
:10007000354E0108354E0108354E0108354E010850
:10008000354E0108354E0108354E0108354E010840
:10009000354E0108354E0108354E0108354E010830
:1000A000354E0108354E0108354E0108354E010820
:1000B000354E01084D490108354E0108354E0108FD
:1000C000354E0108354E0108354E0108354E010800
:1000D000354E0108354E010825490108354E010805
:1000E000354E0108354E0108354E0108354E0108E0
:1000F000354E0108354E0108354E0108354E0108D0
:10010000354E0108354E0108354E0108354E0108BF
:10011000354E0108354E0108354E0108354E0108AF
:10012000354E0108354E0108354E0108354E01089F
:10013000354E0108354E0108354E0108354E01088F
:10014000354E0108354E0108354E0108354E01087F
:10015000354E0108354E0108354E0108354E01086F
:10016000354E0108354E0108354E0108354E01085F
:10017000354E0108354E0108354E0108354E01084F
:10018000354E0108354E0108354E0108354E01083F
:10019000354E0108354E0108354E0108354E01082F
:1001A000354E0108354E0108354E0108354E01081F
:1001B000354E0108354E0108354E0108354E01080F
:1001C000354E0108354E010881B00248006801B083
:1001D000704700BF802C014081B0026810490A605E
:1001E000011D0A680F490A600F490A686FF0F7019C
:1001F00002EA010300F208010A6800F20C01096832
:100200000A4300F2100109680A4300F21401096868
:1002100042EA010143EA010203490A6001B0704762
:10022000242C0140282C01402C2C014081B000F2EC
:100230000C02117000F208021368C3F3000202B945
:10024000F8E700F20C021278D0B201B07047FFFF5D
:1002500081B004490968014009B1012000E0002093
:1002600001B07047342C014081B00248006801B0F1
:10027000704700BF102C014081B000F20C021160E9
:1002800000F208021368C3F3000202B9F8E700F2B3
:100290000C02126890B201B07047FFFF81B00249B2
:1002A000086001B0704700BF382C014081B0C31C0A
:1002B0000020042806D20A781A70491C5B1E401CD4
:1002C000C0B2F6E701B0704784B0CDF800E00C464C
:1002D0004FF000050DF1040B0BF1080ADFF8D8C14F
:1002E00014F016FB0823754A13601023744A136038
:1002F0004FF04003734A13604FF00003724A1360DB
:100300004FF48063714A13606C4801F0D5F91020F6
:1003100000F04EFFC1B208B1C8B2C9E06C4A126821
:100320001304664A13603723654A13604FF0400395
:10033000644A13604FF00003634A13604FF4806314
:10034000624A13605D4801F0B7F9372000F030FFD2
:10035000C1B208B1C8B2ABE05E4B5F4A136008237C
:100360005E4A13604FF030035D4A13604FF00203A2
:100370005C4A13604FF000035B4A13604FF00103C7
:100380005A4A13605448FFF727FF00234B4A136073
:1003900033234B4A13604FF040034A4A13604FF037
:1003A0000003494A13604FF48063484A136043488E
:1003B00001F082F9332000F0FBFEC1B208B1C8B2EF
:1003C00076E027462C464A4A13684A4A03EA020264
:1003D0008AB94FF40010FFF73BFF58B101ABA20000
:1003E0009A180392FFF7F0FE039A1060621C104601
:1003F0000446FFE7E7E74FF00800FFF729FF28B1C1
:100400004FF00800FFF74AFF012051E04FF00200D3
:10041000FFF71EFF28B14FF00200FFF73FFF01205A
:1004200046E04FF02000FFF713FF28B14FF0200007
:10043000FFF734FF01203BE04FF40070FFF708FFA7
:1004400028B14FF40070FFF729FF012030E02A485F
:10045000FFF724FF3E1D01AD2C6804F0FF021306D8
:1004600004F47F421202134304F47F02120A13437E
:1004700004F07F42120E43EA020232602A1D126823
:1004800002F0FF0213062A1D126802F47F421202D4
:1004900013432A1D126802F47F02120A13432A1D15
:1004A000126802F07F42120E43EA02023A60002014
:1004B000DDF800E004B07047CC9A0108341B00203E
:1004C000381B00203C1B0020401B0020441B002048
:1004D000B0030020FFFF0F00481B00204C1B002032
:1004E000501B0020541B0020581B00205C1B0020C8
:1004F000342C01402A060000FF05000081B0034AA9
:10050000116860F38A21116001B070472C2C014002
:1005100081B0019F041D25680A4C05EA04064C00C1
:10052000A4B2A5B2084C2540D4B2240404F47F043C
:1005300045EA04041C433C4346EA0405041D2560C7
:1005400001B07047009800FCFF03000081B0031D5C
:100550001A68034902EA0101196001B0704700BF3F
:1005600000E800FE85B0CDF800E0029000F0FEFE4D
:1005700000239AB2B2F5007F10D202998918049133
:10058000ADF80420FF200C4C2468A047BDF80420DF
:1005900004990870511C8BB29AB2EBE7FF20064C0D
:1005A0002468A047FF20044C2468A0470020DDF801
:1005B00000E005B0704700BF801B002081B0CDF87F
:1005C00000E004464F4A50490A6000224F490A6041
:1005D0004FF000024E490A604FF000024D490A6098
:1005E0004FF000024C490A604FF000024B490A608C
:1005F0004548FFF7F1FD002000F0AEFE48490968CC
:1006000001F0007109B1012077E04649096802292B
:1006100002D12046044600E0640240F20022424932
:100620000A60102241490A604FF0400240490A60C6
:100630004FF000023F490A604FF480623E490A6071
:10064000394801F039F8102000F0B2FD08B101205E
:1006500053E03A4909680A0433490A600D223349D4
:100660000A604FF0400232490A604FF000023149FF
:100670000A604FF4806230490A602B4801F01CF890
:100680000D2000F095FD08B1012036E026490C60F0
:10069000192226490A604FF0400225490A604FF0AE
:1006A000000224490A604FF4806223490A601E4810
:1006B00001F002F8192000F07BFD08B101201CE0D8
:1006C000104A11490A606FF07E4210490A60902278
:1006D0000F490A604FF000020E490A604FF0000215
:1006E0000D490A604FF001020C490A600648FFF705
:1006F00073FD002212490A600020DDF800E001B01D
:10070000704700BFFFFF0F00481B00204C1B00205C
:10071000501B0020541B0020581B00205C1B002095
:10072000142C0140AC030020341B0020381B002097
:100730003C1B0020401B0020441B0020B003002075
:10074000881B002081B0CDF800E00446012002F0B3
:10075000A5F8012001F0BCFD0120FFF7CFFE01202C
:1007600002F0A6F8404A41490A60002240490A6066
:100770004FF000023F490A604FF000023E490A6014
:100780004FF000023D490A604FF000023C490A6008
:100790003648FFF721FD002000F0DEFD39490968E9
:1007A00001F0007109B101205AE0374909680229B6
:1007B00002D12046044600E0640240F200223349A0
:1007C0000A60102232490A604FF0400231490A6043
:1007D0004FF0000230490A604FF480622F490A60EE
:1007E0002A4800F069FF102000F0E2FC08B1012067
:1007F00036E026490C60122225490A604FF040027B
:1008000024490A604FF0000223490A604FF48062D5
:1008100022490A601D4800F04FFF122000F0C8FC7A
:1008200008B101201CE0002001F052FD0E4A0F49E2
:100830000A606FF07E420E490A6090220D490A60FC
:100840004FF002020C490A604FF000020B490A60A7
:100850004FF001020A490A600448FFF7BDFC00207E
:10086000DDF800E001B07047FFFF0F00481B0020DB
:100870004C1B0020501B0020541B0020581B002044
:100880005C1B0020142C0140AC030020341B002012
:10089000381B00203C1B0020401B0020441B002074
:1008A00085B0CDF800E0029002F00AF9FF220021A5
:1008B000092002F063FA38B102F0EEF80320154C7B
:1008C0002468A047012021E000F050FD00239AB2E7
:1008D000102A10D2029989180491ADF80420FF2043
:1008E0000D4C2468A047BDF8042004990870511CE1
:1008F0008BB29AB2ECE7FF20074C2468A047FF2098
:10090000054C2468A04702F0C7F80020DDF800E09D
:1009100005B07047841B0020801B002085B0CDF8F7
:1009200000E0029002F0CCF8FF2200210A2002F041
:1009300025FA38B102F0B0F80320154C2468A0471E
:10094000012021E000F012FD00239AB2102A10D2FB
:10095000029989180491ADF80420FF200D4C2468F9
:10096000A047BDF8042004990870511C8BB29AB2BC
:10097000ECE7FF20074C2468A047FF20054C2468C3
:10098000A04702F089F80020DDF800E005B07047CC
:10099000841B0020801B002083B0CDF800E0029073
:1009A000FC201C4C2468A047002290B240F2FF11AA
:1009B00088420FD8029909180978CCB2ADF8040022
:1009C000A0B2144C2468A047BDF80400411C8AB2B0
:1009D00090B2EBE7FF200F4C2468A047FF200D4C9E
:1009E0002468A047FF200B4C2468A04700F01F019B
:1009F00089B2052907D002F04FF80320064C24687D
:100A0000A047022002E002F08FF80020DDF800E0AD
:100A100003B07047801B0020841B002082B0CDF8FB
:100A200000E080469946029C4FF000004F4CA045E4
:100A300006D14F4C20684F4C25684F4C25601DE077
:100A40004E4CA04506D14E4C20684E4C25684A4C71
:100A5000256013E04C4CA04506D14C4C20684C4C12
:100A60002568454C256009E04A4CA04506D14A4C12
:100A700020684A4C2568404C2560FFE7484C2060C0
:100A80004FF4005401924FF000735FFA89F2404630
:100A900010B4FFF73DFD01B0019A414613464A46A6
:100AA000002A24D93E4C206801930346084611468B
:100AB000019A00F21804246804F002046CB9384C5E
:100AC00024684CB133B904202B4C2468A0474FF65E
:100AD000FF7046E05B1EFFE7EBE700F228051478A5
:100AE0002C60541C23464C1E22460146D8E72C4C51
:100AF000206801900846019900F21804246804F067
:100B000001046CB9264C24684CB131B904201A4C4C
:100B10002468A0474FF6FF7023E0491EFFE7EBE78C
:100B20001F4C216800F21804246804F020046CB9FA
:100B30001B4C24684CB131B904200F4C2468A047E9
:100B40004FF6FF700DE0491EFFE7EBE700F21806D5
:100B500035686FF0200405EA04043460FFF7F6FC02
:100B60000020DDF800E002B0704700BF00540040F4
:100B7000940300205C1A0020581A002000580040FE
:100B8000980300206C1A0020005C00409C030020A9
:100B9000701A002000600040A0030020741A00209A
:100BA000A403002081B0CDF800E0034C2468A047E6
:100BB000DDF800E001B07047CC03002081B00A48A6
:100BC000008828B90721094801704FF0FF3008E07C
:100BD00007480088811E074800884143064800688E
:100BE000401801B0704700BFE41A0020371A0020F7
:100BF000CE1A0020EA1A0020FC1A002082B0CDF89C
:100C000000E0804692469946029C4FF00000404C1E
:100C1000A04506D13F4C20683F4C25683F4C2560DD
:100C20001DE03F4CA04506D13E4C20683E4C256857
:100C30003A4C256013E03D4CA04506D13C4C206861
:100C40003C4C2568354C256009E03B4CA04506D15D
:100C50003A4C20683A4C2568304C2560FFE7394C07
:100C600020604FF40054384B5FFA89F2404610B4CC
:100C7000FFF74EFC01B00022434651464D46AA42C2
:100C800022D2304C20680195054618461346019A39
:100C900000F21804246804F004045CB9294C2468A8
:100CA0003CB125B903201D4C2468A0472CE06D1EE3
:100CB000FFE7EDE7CD1800F2240424682C705B1CDC
:100CC00015461A460346DAE71E4C206801461846C8
:100CD00000F21804246804F020045CB9194C24685C
:100CE0003CB121B903200D4C2468A0470CE0491EFB
:100CF000FFE7EDE700F2180635686FF0200405EA1B
:100D000004043460FFF722FCDDF800E002B0704715
:100D100000540040940300205C1A0020581A002060
:100D200000580040980300206C1A0020005C00402E
:100D30009C030020701A002000600040A0030020E7
:100D4000741A0020A40300200004000281B0CDF832
:100D500000E004460C492046FFF7A8FA211D08468A
:100D60000A49FFF7A3FA04F2080108460849FFF709
:100D70009DFA04F20C0108460649FFF797FA002095
:100D8000DDF800E001B07047701B0020741B0020EC
:100D9000781B00207C1B002081B0CDF800E00446C9
:100DA0000C492046FFF782FA211D08460A49FFF741
:100DB0007DFA04F2080108460849FFF777FA04F2C1
:100DC0000C0108460649FFF771FA0020DDF800E043
:100DD00001B07047601B0020641B0020681B0020CE
:100DE0006C1B002084B0CDF800E04FF000060546F3
:100DF00040F200225D490A60002102910021039126
:100E00005B490A685B4902EA0101002940F06E80F3
:100E1000039A59498A4200F269804FF48040FFF7F3
:100E200017FA002800F05A8050490968891B2029C8
:100E30001BD3002733463A46082A0ED29100691880
:100E40000968084600F030FC0299491C029180298B
:100E500000D302E0571C3A46EEE705F220010846AF
:100E600003F220010E4605462FE040490968891B20
:100E700001F0030129B93D490968891B89080191DD
:100E800005E03A490968891B8908491C01910198C4
:100E90000027A846344603463A469A4213D2D8F869
:100EA0000010084600F000FC0299491C02918029BC
:100EB00000D308E0511C0F4608F10405261DA84682
:100EC00034463A46E9E7264645460299802900D34A
:100ED0000CE0002103912946304604E00399491CA7
:100EE00003912946304606460D4689E74FF0080033
:100EF000FFF7AEF928B14FF00800FFF7CFF9012056
:100F000030E04FF00200FFF7A3F928B14FF00200E4
:100F1000FFF7C4F9012025E04FF01000FFF798F922
:100F200028B14FF01000FFF7B9F901201AE04FF493
:100F30000070FFF78DF928B14FF40070FFF7AEF99C
:100F400001200FE0039A0C498A4203D802998029B4
:100F500000D301E0012005E0084A116801F50071A5
:100F600011600020DDF800E004B07047B8030020F5
:100F7000342C01401A030000FFFF1F00881B0020D3
:100F800082B0CDF800E001260446002300250120B0
:100F900001F09EF93A490A683A4902EA010100293A
:100FA0002FD139498D422FD84FF40040FFF750F927
:100FB000F8B1012E04D1002001F08AF9002200E0EE
:100FC000F2B20025082D0ED2A90061180191FFF799
:100FD000FBF801990860591C0B46802901D318467B
:100FE00002E06D1CEEE71846203400250346D6B219
:100FF00000E06D1C802B00D300E0CBE71A462B46A7
:1010000001E01A462B4601E01A462B464FF0080035
:10101000FFF71EF928B14FF00800FFF73FF9012054
:1010200029E04FF00200FFF713F928B14FF002005A
:10103000FFF734F901201EE04FF02000FFF708F918
:1010400028B14FF02000FFF729F9012013E04FF4F9
:101050000070FFF7FDF828B14FF40070FFF71EF99C
:10106000012008E008498B4202D8802A00D301E021
:10107000012000E00020DDF800E002B0704700BF72
:10108000342C01402A030000FFFF1F0081B0CDF87F
:1010900000E0024601F014FD10490978042901D14D
:1010A000104600E05002FF220146192001F066FEC2
:1010B00038B101F0F1FC0320094C2468A04701205D
:1010C00008E0FF20074C2468A047FF20054C246857
:1010D000A0470020DDF800E001B07047AB0300201E
:1010E000841B0020801B002082B0CDF800E0114955
:1010F0001148026801920A46019901F0450028B999
:10110000002A03D9521E0C480168F6E71AB101F013
:10111000040000B905E04FF00400FFF7BFF801201C
:1011200003E00648FFF7BAF80020DDF800E002B05F
:10113000704700BF10270000342C0140FF0500005D
:1011400081B00348006800F0030001B0704700BFA1
:10115000002C014082B0CDF800E01349134802682A
:1011600001920A46019901F0450028B9002A03D9E5
:10117000521E0E480168F6E71AB101F0040000B9EA
:1011800005E04FF00400FFF789F8012007E001F0C7
:10119000400018B14FF04000FFF780F80020DDF864
:1011A00000E002B0704700BF10270000342C01405F
:1011B00082B0CDF800E0474A47490B6801931346D7
:1011C000C2B2019800F0450129B9002B03D95B1E7A
:1011D00041490868F6E700F0040109B903B105E0E8
:1011E0004FF00400FFF75AF801206FE000F0010112
:1011F00029B14FF00100FFF751F8012066E0FFF739
:1012000033F8904201D0012060E03448FFF746F8FF
:1012100033490868334900EA010109B9002055E063
:1012200000F0004109B1012050E000F0804109B117
:1012300001204BE000F0005109B1012046E000F030
:10124000805109B1012041E000F0006109B10120A5
:101250003CE000F0806109B1012037E000F08071CE
:1012600009B1012032E000F4000109B101202DE0B4
:1012700000F4800109B1012028E000F4001109B157
:10128000012023E000F4801109B101201EE000F4E8
:10129000002109B1012019E000F4802109B10120E9
:1012A00014E000F4003109B101200FE000F48031B6
:1012B00009B101200AE000F4804109B1012005E0F4
:1012C00000F0080109B1012000E00020DDF800E095
:1012D00002B0704710270000342C0140FF050000C9
:1012E000142C014008E0FFFD82B0CDF800E00022A0
:1012F00016491748036801930B46019901F0450010
:1013000028B9002B03D95B1E11480168F6E71BB111
:1013100001F0040000B906E001224FF00400FEF7DE
:10132000BDFFD0B20DE001F0010030B101224FF05D
:101330000100FEF7B3FFD0B203E00648FEF7AEFFB0
:10134000D0B2DDF800E002B0704700BF1027000007
:10135000342C0140FF05000081B0034A116860F39E
:10136000C301116001B070472C2C014082B0CDF850
:1013700000E010480168ADF80410FF200E4C24680E
:10138000A047BDF8041082B2481E81B20B48007815
:1013900030B129B902200A4C2468A047012004E09A
:1013A000FE2A02D0002900D3E5E7DDF800E002B014
:1013B000704700BFB4030020801B00208103002081
:1013C000841B002082B0CDF800E00023264C274A81
:1013D0001568019525460C46C1B2019800F04502FA
:1013E0002AB9002D03D96D1E204A1068F6E71DB1F9
:1013F00000F0040202B906E001224FF00400FEF7FB
:101400004DFFD0B22CE000F0010232B101224FF0CA
:101410000100FEF743FFD0B222E0FEF725FF88422D
:1014200001D001201CE01248FEF738FF114A106875
:1014300000F4604222B9020C92B22280D8B20FE0CE
:1014400000F400520AB101200AE000F480420AB11F
:10145000012005E000F400420AB1012000E0D8B20A
:10146000DDF800E002B0704710270000342C014086
:10147000FF050000142C014083B0CDF800E05FFAB6
:1014800080F80DF1040B0BF1080ADFF838C113F0F6
:101490003FFA4D49096801F0007109B101208CE063
:1014A00001AA4A49096888B21146FEF70DFFC1B288
:1014B00008B1C8B281E0B8F1010F3FD101A9091DFF
:1014C000096801F48021002936D0404909680A04DE
:1014D0003F490A6037223F490A604FF040023E49C7
:1014E0000A604FF000023D490A604FF480623C49B7
:1014F0000A60374800F0E0F83720FFF759FEC1B224
:1015000008B1C8B259E0022231490A6006223149C5
:101510000A604FF0400230490A604FF000022F4944
:101520000A604FF480622E490A60294800F0C4F82E
:101530000620FFF73DFE40E001203EE001A9091D25
:10154000096801F48031002936D0204909680A046D
:101550001F490A6037221F490A604FF040021E49A6
:101560000A604FF000021D490A604FF480621C4976
:101570000A60174800F0A0F83720FFF719FEC1B243
:1015800008B1C8B219E0002211490A6006221149C7
:101590000A604FF0400210490A604FF000020F4904
:1015A0000A604FF480620E490A60094800F084F82E
:1015B0000620FFF7FDFD00E00120DDF800E003B0AC
:1015C000704700BF109B0108142C0140B00300209D
:1015D000341B0020381B00203C1B0020401B002037
:1015E000441B002081B0202806D00D2802D80928ED
:1015F00000D301E0002100E00121C8B201B0704732
:1016000081B0CDF800E00446CDB2221D126802F48C
:101610007062B2F5E06F04D8E9B22046FEF706FE2C
:1016200005E0E9B22046FEF727FE81B288B2DDF878
:1016300000E001B07047FFFF81B0CDF800E0024646
:1016400001F03EFA0C490978042901D1104600E066
:101650005002FF220146122001F090FB38B101F048
:101660001BFA0320054C2468A047012000E000205D
:10167000DDF800E001B07047AB030020841B0020C0
:1016800081B00091014600980A7832B10B78027857
:10169000934202D1491C401CF6E70B7802789A1A53
:1016A00010B201B07047FFFF81B00249086001B07D
:1016B000704700BF802C014081B002680D490A606C
:1016C0000D490A680D4902EA0103011D0A6800F28A
:1016D000080109680A4300F20C0109680A4300F294
:1016E0001001096842EA010143EA010202490A6065
:1016F00001B07047082C01400C2C014000F8FFFF9E
:1017000081B0CDF800E00A4A002A06D94FF08000E7
:10171000FEF79EFD08B9521EF6E70AB9012003E064
:101720000448FEF7BBFD0020DDF800E001B0704783
:1017300010270000FF05000081B00249086001B0D9
:10174000704700BF002C014081B0034A116860F36C
:101750000821116001B07047042C014081B000F2F3
:101760001C010A68C2F3801188B201B07047FFFF04
:101770000A4A126802F0FF039BB2020292B21343BC
:101780009BB2064A1360064A106800F47F4292B288
:1017900042EA01039BB2024A1360704714100240F0
:1017A0001418024081B0CDF800E0034C2468A04733
:1017B000DDF800E001B07047DC030020801A06006D
:1017C00040F2C307C0F200077F1EFDD100BF00BF7B
:1017D00000BF00BF7047FFFF81B000F21C010A6824
:1017E000C2F3401188B201B07047FFFF044A11886C
:1017F00001F47F4189B240EA01011180704700BFC6
:101800001410024081B0014608460B460246401CB7
:10181000117801B1FAE7C11A491E08B201B0704748
:1018200081B0CDF800E0C1B20348FFF7E9FEDDF872
:1018300000E001B0704700BF0030014083B0CDF838
:1018400000E0044604F0FF031A09104603F00F02FB
:101850009446220A02F00F02934620E0324A029296
:1018600033E0324A029230E0314A02922DE0314AAE
:1018700002922AE0304A029227E0304A029224E0A3
:101880002F4A029221E02F4A02921EE02E4A029233
:101890001BE02E4A029218E02D4A029215E0002821
:1018A000DCD00128DDD00228DED00328DFD00428D8
:1018B000E0D00528E1D00628E2D00728E3D00828A8
:1018C000E4D00928E5D00A28E6D0012212B202FAB3
:1018D0000CF2ADF8042002980A46BDF8041006F098
:1018E00077FF029A02F22001BCF1070F08D90A1D06
:1018F0001046ACF10802114601910146019800E042
:10190000604683004FF00F029A40D3430A681A40A2
:101910000A6082000BFA02F30A681A430A60DDF8D3
:1019200000E003B0704700BF000002400004024026
:1019300000080240000C0240001002400014024067
:1019400000180240001C0240002002400024024017
:101950000028024081B0CDF800E0034C2468A04785
:10196000DDF800E001B07047D803002087B0CDF863
:1019700000E004A90D4604460194029503900B2251
:1019800012B20846202104F0ADFC0398029D019C90
:101990000646317831B13178C8B2FFF723FE08B17D
:1019A000761CF6E723493046FFF76AFE38B904AAE9
:1019B0002E211170521C2E211170204630E01E493C
:1019C0003046FFF75DFE20B904AA2E211170204693
:1019D00026E022462C463346197871B11978C8B2F0
:1019E000FFF700FE48B919782E2906D01978217022
:1019F000611C08465B1C0446EEE719782E2901D1CC
:101A0000581C00E0184604AB083301901046019AB8
:101A10001178202904D9117819705B1C521CF7E742
:101A200004A90B2212B203F0C5FEDDF800E007B0F6
:101A3000704700BFA80300209203002081B07A28DD
:101A400008D8612807D34FF6DF7109B200EA010117
:101A5000C8B2FFE7FFE701B07047FFFF81B0ADF804
:101A600000200246BDF9000004B2431E18B25CB16A
:101A700014780B789C4204D014780B78E31A18B2CF
:101A800004E0521C491CEFE7002000B201B070478F
:101A900081B0CDF800E008B413460A46C1B204484C
:101AA000FEF7BCFF01B0DDF800E001B0704700BFF9
:101AB0000060004081B0CDF800E008B413460A464B
:101AC000C1B20448FEF7AAFF01B0DDF800E001B0A2
:101AD000704700BF005C004081B0CDF800E008B462
:101AE00013460A46C1B20448FEF798FF01B0DDF87C
:101AF00000E001B0704700BF0058004081B0CDF851
:101B000000E008B413460A46C1B20448FFF776F86D
:101B100001B0DDF800E001B0704700BF005C00409C
:101B200081B0CDF800E008B413460A46C1B20448BB
:101B3000FFF764F801B0DDF800E001B0704700BFC6
:101B40000058004081B0CDF800E008B413460A46C2
:101B5000C1B20448FFF752F801B0DDF800E001B06F
:101B6000704700BF0054004081B000F218010A68BD
:101B7000C2F3402109B1012000E0002001B070470C
:101B800082B0CDF800E00246084615460446002122
:101B9000134608290AD22A78202A00D106E02A789A
:101BA0002270641C6D1C491C89B2F2E703F2080222
:101BB00011461278202A16D02E222270661C00228E
:101BC00005460C4691B203290AD22278202A00D178
:101BD00006E022783270761C641C491C89B2F2E758
:101BE00030461E4602E01E46054620460022027090
:101BF00005F20D0306F20B0212781A7005F21C02B0
:101C0000019206F21C02104602F03AF9019A1060A5
:101C100005F22002019206F21A02104601F09EF926
:101C2000019A108006F20E021378521C12781202EA
:101C300092B29C18A4B2A0B205F20E02D31CE20A22
:101C40001A7005F20E02131D420992B202F03F0211
:101C50001A7005F20E02531D00F01F0292B25200DC
:101C60001A7006F210021378521C1278120292B205
:101C70009C18A4B2A0B205F20E02931C04F01F023D
:101C80001A7005F20E02531C420992B202F00F02C2
:101C90001A7005F20E03420A1A7006F21602137841
:101CA000521C1278120292B29C18A4B2A0B205F291
:101CB0001402D31CE20A1A7005F21402131D420921
:101CC00092B202F03F021A7005F21402531D00F0A6
:101CD0001F0292B252001A7006F218021378521CB8
:101CE0001278120292B29C18A4B2A0B205F21402A9
:101CF000931C04F01F021A7005F21402531C4209CF
:101D000092B202F00F021A7005F21403420A1A701E
:101D1000DDF800E002B0704781B0CDF800E0034C80
:101D20002468A047DDF800E001B07047E003002020
:101D300081B0CDF800E008B413460A46C1B20448A9
:101D4000FEF76CFE01B0DDF800E001B0704700BFA7
:101D50000054004085B0CDF800E0ADF8101081B21D
:101D6000304A1288B1FBF2F292B203922E4A136803
:101D7000039AD418039401232C4A1370ADF804106D
:101D80002B49204604F0A2FABDF8041028B1102314
:101D9000284A13704FF6FF7040E0224A1388B1FBC7
:101DA000F3F203FB121292B253009BB298B2204A94
:101DB000D31804AC22781A70431C9BB21C4AD31867
:101DC000621C12781A701A490398FEF7EBFE28B1CC
:101DD0000523184A13704FF6FF701FE00122ADF87B
:101DE0000820154A1378BDF808209A4215D2134AE4
:101DF0001388039AD21803920D491046FEF7D2FEBB
:101E000028B105230B4A13704FF6FF7006E0BDF8AA
:101E10000820521CADF80820E3E70020DDF800E0C0
:101E200005B07047301B0020F41A00204019002034
:101E300040170020371A0020EE1A0020F21A002066
:101E400083B0CDF800E0304A11883048008848431C
:101E5000ADF804000220ADF806001046018840F2FB
:101E60000200B0FBF1F080B281B2294800680B1883
:101E70001046028840F20201B1FBF2F002FB1010A2
:101E800080B2410089B22348401802901846FFF7FB
:101E900061FD0121204801701E48FFF783FCBDF859
:101EA0000410BDF80600884215D20298008800B9D7
:101EB00011E00298811C0291BDF80600401CADF8AB
:101EC000060016480068814204D112480290114869
:101ED000FFF768FCE3E7FFF71FFF28B11021104868
:101EE00001704FF6FF700AE0BDF80410BDF806005F
:101EF000884202D14FF6FF7001E0BDF80600DDF820
:101F000000E003B0704700BF301B0020F21A002031
:101F1000F41A00204017002040190020201B002048
:101F2000371A002081B0CDF800E0C1B20348FFF7B6
:101F300067FBDDF800E001B0704700BF00380040EB
:101F400081B0CDF800E019490968032906D1B0F540
:101F5000805F01D1002024E0012022E013490968BC
:101F600041B112490968012904D0104909680229C0
:101F700000D015E0B0F5805F01D1012011E0B0F58F
:101F8000006F07D10120FFF777FA002801D0012068
:101F900007E005E00020FFF76FFA08B1012000E03C
:101FA0000020DDF800E001B0704700BFAC03002066
:101FB00084B0CDF800E0064600228DF80C204FF0EA
:101FC00000040D4609B9012057E1AD4BAD4A13603D
:101FD0000023AD4A13604FF00003AC4A13604FF08A
:101FE0000003AB4A13604FF00003AA4A13604FF09E
:101FF0000003A94A1360A348FEF7EEF80020FFF79C
:10200000ABF9A64A126802F000720AB1012034E16D
:10201000A34A1268022A02D13046064600E0760240
:1020200040F200239F4A136010239F4A13604FF031
:1020300040039E4A13604FF000039D4A13604FF423
:1020400080639C4A13609748FFF736FB1020FFF728
:10205000AFF808B1012010E1974A12681304914AC1
:1020600013600D23904A13604FF040038F4A1360B2
:102070004FF000038E4A13604FF480638D4A136063
:102080008848FFF719FB0D20FFF792F808B10120EF
:10209000F3E0824A11687A4801962646019C01F4D1
:1020A0008072002A24D1002822D9421E1746824A73
:1020B000126813047B4A13600D237B4A13604FF0B0
:1020C00040037A4A13604FF00003794A13604FF4DB
:1020D0008063784A13607348FFF7EEFA0D20FFF72C
:1020E00067F808B10120C8E06C4A11683846D6E7A5
:1020F00008B90120C1E06B4A146018236A4A1360D2
:102100004FF04003694A13604FF00003684A1360C0
:102110004FF48063674A13606248FFF7CDFA1820D6
:10212000FFF746F808B10120A7E040F20023634A18
:102130001360534B534A136040F20023524A13601A
:102140009023524A13604FF00003514A13604FF03E
:102150000003504A13604FF001034F4A136049488F
:10216000FEF73AF83446564A1368564A03EA020222
:10217000002A3ED14FF48040FEF76AF8002837D09D
:102180004E4A1268121B202A20D24C4A1268121B97
:1021900002F003022AB9494A1268121B92080292FD
:1021A00005E0464A1268121B9208521C0292029BDA
:1021B00000269E4207D22A681046FFF775FA761C61
:1021C0002D1D241DF5E7284621460EE00023082B8F
:1021D00007D29A00AA1812681046FFF765FA5B1C2E
:1021E000F5E705F2200004F220010C460546FFE762
:1021F000B9E74FF00800FEF72BF828B14FF00800C0
:10220000FEF74CF8012038E04FF00200FEF720F80E
:1022100028B14FF00200FEF741F801202DE04FF009
:102220001000FEF715F828B14FF01000FEF736F851
:10223000012022E04FF40070FEF70AF828B14FF4B5
:102240000070FEF72BF8012017E01F48FEF726F874
:1022500003AA104600F036FBC1B2C8B268B99DF8B7
:102260000C20072A04D09DF80C20062A00D004E098
:1022700003AA104600F026FBF0E7DDF800E025E0B9
:10228000FFFF0F00481B00204C1B0020501B0020AC
:10229000541B0020581B00205C1B0020142C014004
:1022A000AC030020341B0020381B00203C1B002006
:1022B000401B0020441B0020B0030020B803002076
:1022C000342C01401A060000FF05000004B07047DE
:1022D00081B0034A116860F34921116001B0704771
:1022E0002C2C014081B093B20A46014640F2000412
:1022F00040F200001FFA80F810469AB2EAB10B19BA
:102300001D78EEB2631C9FB200EB08031C785FFAE5
:1023100084F908F101081FFA88F8A54207D04E4554
:1023200002D2FF2040B201E0012040B207E006B92E
:1023300003E0521E92B2BCB2E0E7002040B201B00E
:102340007047FFFF82B0CDF800E040F20100ADF829
:102350000400FEF7F5FE08B9012094E04C4800683F
:1023600004282CD000214B48016002214A4801601A
:102370004FF0C001494801604FF00001484801603A
:102380004FF48061474801604248FFF795F9FEF736
:10239000ABFF012801D1012075E0434801684348A3
:1023A000016043480168434801604348016843486D
:1023B00001604348006840F0010142480160344830
:1023C000006860B132480068012808D030480068D1
:1023D000062804D02E480068022800D01CE0002106
:1023E0002C48016003212C4801604FF040012B482C
:1023F00001604FF000012A4801604FF480612948D4
:1024000001602448FFF758F901A801460320FEF7B0
:10241000D9FF08B1012036E01D480068042831D0FA
:10242000BDF8041028480160BDF8040001041948F3
:1024300001600921184801604FF0C0011748016090
:102440004FF00001164801604FF4806115480160AB
:102450001048FFF731F9FEF747FF08B1012012E0FD
:102460001148016819480160114801681848016065
:1024700011480168174801601148006840F00101E7
:10248000154801600020DDF800E002B0704700BF91
:10249000AC030020341B0020381B00203C1B002014
:1024A000401B0020441B0020142C0140601B002016
:1024B000182C0140641B00201C2C0140681B0020CC
:1024C000202C01406C1B0020B0030020701B00205A
:1024D000741B0020781B00207C1B002081B0CDF8ED
:1024E00000E00D49086007220C490A604FF04002E5
:1024F0000B490A604FF000020A490A604FF48062FB
:1025000009490A600448FFF7D7F80720FEF750FE94
:10251000DDF800E001B07047341B0020381B0020BC
:102520003C1B0020401B0020441B002082B0CDF843
:1025300000E005460C4609B90120DBE06F4B704A0C
:10254000136000236F4A13604FF000036E4A13605C
:102550004FF000036D4A13604FF000036C4A1360A4
:102560004FF000036B4A13606548FDF735FE00200D
:10257000FEF7F2FE684A126802F000720AB101200A
:10258000B8E0664A1268022A02D12846054600E0F1
:102590006D0240F20023624A13601023614A136007
:1025A0004FF04003604A13604FF000035F4A13602E
:1025B0004FF480635E4A13605948FFF77DF810209E
:1025C000FEF7F6FDC6B208B1F0B293E04B4B4C4AB1
:1025D000136040F200234B4A136090234A4A136071
:1025E0004FF00203494A13604FF00003484A13605A
:1025F0004FF00103474A13604148FDF7EDFD40F2FB
:1026000000234C4A1360464A15601123454A136063
:102610004FF04003444A13604FF00003434A1360F5
:102620004FF48063424A13603D48FFF745F811209C
:10263000FEF7BEFD08B101205CE02546F4B23E4A3B
:1026400013683E4A03EA0202C2B94FF40040FDF7A4
:10265000FFFD90B10023E1B2082B08D29A00AA181E
:102660000192FDF7B1FD019A10605B1CF4E705F2E1
:1026700020021046CCB20546FFE7E0E74FF0080025
:10268000FDF7E6FD28B14FF00800FDF707FE012039
:1026900030E04FF00200FDF7DBFD28B14FF0020003
:1026A000FDF7FCFD012025E04FF02000FDF7D0FDF7
:1026B00028B14FF02000FDF7F1FD01201AE04FF4A2
:1026C0000070FDF7C5FD28B14FF40070FDF7E6FD81
:1026D00001200FE0E3B22C464FF40010FDF7B8FDE7
:1026E00020B1FDF771FD2060241DF5E71448FDF7CA
:1026F000D5FDD8B2DDF800E002B07047FFFF0F0053
:10270000481B00204C1B0020501B0020541B0020A5
:10271000581B00205C1B0020142C0140AC0300203F
:10272000341B0020381B00203C1B0020401B0020D5
:10273000441B0020B8030020342C01402A0600006E
:10274000FF05000083B0CDF800E00346029100F0E1
:10275000B7F92A4A1278042A01D1184600E0580233
:10276000FF220146182000F009FB18B100F094F98F
:1027700001203EE0FF20224C2468A047FF20204C8F
:102780002468A047FE201E4C2468A047002040F289
:10279000FF1290420FD8029A12181278D4B2ADF8F4
:1027A0000400A0B2164C2468A047BDF80400421CE7
:1027B00091B288B2EBE7FF20114C2468A047FF20BC
:1027C0000F4C2468A047FF200D4C2468A04700F060
:1027D0001F0292B2052A07D000F05EF90320094CCF
:1027E0002468A047022004E000F09EF900F054F9AC
:1027F0000020DDF800E003B0704700BFAB0300200D
:10280000801B0020841B002085B0CDF800E003462B
:10281000029100F055F91E4A1278042A01D1184697
:1028200000E05802FF220146112000F0A7FA38B15B
:1028300000F032F90320174C2468A047012022E061
:10284000FEF794FD002399B2B1F5007F10D2029AF1
:1028500052180492ADF80410FF200F4C2468A047D2
:10286000BDF80410049A10704A1C93B299B2EBE7B9
:10287000FF20094C2468A047FF20074C2468A0478C
:1028800000F00AF90020DDF800E005B0704700BF55
:10289000AB030020841B0020801B002081B0034A72
:1028A000116860F30821116001B070472C2C0140C1
:1028B00081B0034A116860F3CB21116001B0704709
:1028C0002C2C014081B0CDF800E00446002557498A
:1028D00009680A0456490A600D2256490A604FF0F9
:1028E000400255490A604FF0000254490A604FF413
:1028F000806253490A604E48FEF7DEFE514908687F
:102900002346EAB200F0450111B94E490868F9E7DB
:1029100000F0040129B14FF00400FDF7BFFC0120D5
:102920007FE000F0010129B14FF00100FDF7B6FC96
:10293000012076E0FDF798FCC1B20D2901D00120FD
:102940006FE04148FDF7AAFC40490868410A01F0E0
:102950000F01C9B219703E4900EA010109B900200E
:102960005FE000F0004109B101205AE000F0804131
:1029700009B1012055E000F0005109B1012050E0FB
:1029800000F0805109B101204BE000F0006109B175
:10299000012046E000F0806109B1012041E000F033
:1029A000807109B101203CE000F4000109B101206F
:1029B00037E000F4800109B1012032E000F4001199
:1029C00009B101202DE000F4801109B1012028E0B7
:1029D00000F4002109B1012023E000F4802109B1B5
:1029E00001201EE000F4003109B1012019E000F4DB
:1029F000803109B1012014E000F4004109B1012047
:102A00000FE000F4804109B101200AE000F4005118
:102A100009B1012005E000F0080109B1012000E042
:102A2000D0B2DDF800E001B0704700BFB003002075
:102A3000341B0020381B00203C1B0020401B0020C2
:102A4000441B0020342C0140FF050000142C0140E1
:102A500008E0FFFD81B0014640F2000340F20000B3
:102A600082B20846C118097821B15B1C9BB2521C86
:102A700092B2F7E790B201B07047FFFF81B0CDF896
:102A800000E0C1B20348FEF7BBFDDDF800E001B095
:102A9000704700BF0054014081B0CDF800E0064906
:102AA000086840F008000860FF20044C2468A04734
:102AB000DDF800E001B07047140C0240801B0020DC
:102AC00081B0034908686FF3C300086001B0704724
:102AD000140C024081B0CDF800E0C1B20348FEF70B
:102AE0008FFDDDF800E001B0704700BF003C004002
:102AF00081B0CDF800E0C1B20348FEF781FDDDF8FA
:102B000000E001B0704700BF0034014081B0CDF853
:102B100000E0C1B20348FEF773FDDDF800E001B04C
:102B2000704700BF0050014082B0CDF800E010486F
:102B30000168ADF80410FF200E4C2468A047BDF8D2
:102B4000041082B2481E81B20B48007830B129B916
:102B500002200A4C2468A047012005E0B2F1FF0FD3
:102B600002D0002900D3E4E7DDF800E002B07047AE
:102B7000B4030020801B002081030020841B002060
:102B800001480068704700BF541A002082B0CDF899
:102B900000E04FF000070024002500260320FEF788
:102BA000CBFD0120FEF7D0FD00216B480160002124
:102BB0006A4801604FF00001694801604FF0000170
:102BC000684801604FF48061674801606248FEF721
:102BD00073FDFEF795FD08B10120B9E04FF4D57102
:102BE0005D4801604FF008015C4801604FF0400112
:102BF0005B4801604FF000015A4801604FF480616A
:102C0000594801605448FEF757FDFEF7A3FA30B962
:102C10004FF00101554801604FF0804717E0002157
:102C20004D48016037214D4801604FF040014C484C
:102C300001604FF000014B4801604FF480614A4849
:102C400001604548FEF738FD3720FEF7B1FA002154
:102C5000414801603721414801604FF04001404840
:102C600001604FF000013F4801604FF480613E4831
:102C700001603948FEF720FD3720FEF799FAC2B20D
:102C8000002840F06480E0B23C463146002840F025
:102C900050803748854280F04C8000212E480160EA
:102CA00037212E4801604FF040012D4801604FF060
:102CB00000012C4801604FF480612B4801602648D8
:102CC000FEF7FAFC3720FEF773FAC1B208B1C8B2BA
:102CD0003EE0284840EA04011F48016029211F48BE
:102CE00001604FF040011E4801604FF000011D4897
:102CF00001604FF480611C4801601748FEF7DCFC5E
:102D0000FEF7F2F9C1B208B1C8B221E01A48026870
:102D1000D00F012802D1012040B201E0002040B2D2
:102D2000C3B26D1C8DF80410D8B211469DF8042072
:102D3000ACE70F48854201D3012009E001F0804053
:102D400018B14FF0020109480160D0B200E0D0B2E2
:102D5000DDF800E002B07047341B0020381B002073
:102D60003C1B0020401B0020441B0020AC03002023
:102D7000FFFF000000001080142C014084B0CDF84B
:102D800000E002918DF80C2000F24004A0B2244C27
:102D90002468A04702ABDB1C1B78DCB2A0B2204C3D
:102DA0002468A04702AB9B1C1B78DCB2A0B21C4C71
:102DB0002468A04702AB5B1C1B78DCB2A0B2184CA5
:102DC0002468A04702AB1B78DCB2A0B2144C246884
:102DD000A0479DF80C00124C2468A047114B1968BD
:102DE000ADF80410FF200E4C2468A047BDF8041075
:102DF0004B1E99B20C4B1B7833B129B902200B4CF6
:102E00002468A047012006E000F080039BB213B1C4
:102E1000002900D3E4E7DDF800E004B0704700BF0C
:102E2000801B0020C003002081030020841B0020A1
:102E300084B0CDF800E08DF80C000021ADF804104E
:102E400042490A68BDF80410914280F07A809DF8EA
:102E50000C1099B9FFF734FEFF2200210120FFF783
:102E60008DFFADF80600FFF717FEBDF8061021B97B
:102E7000002237490A70002064E05CE0FFF720FE82
:102E8000FF2200213720FFF779FFADF80600FFF79A
:102E900003FEBDF80610012949D1FFF711FEFF22FC
:102EA0004FF080412920FFF769FFADF80600FFF7DA
:102EB000F3FDBDF80610002938D19DF80C10022949
:102EC0002FD1FFF7FDFDFF2200213A20FFF756FF2B
:102ED000ADF80600FF201F4C2468A047ADF808009D
:102EE000FF201C4C2468A047FF201A4C2468A047F0
:102EF000FF20184C2468A047FFF7CEFDBDF8061050
:102F000071B9BDF8081001F0400189B219B104226D
:102F10000F490A7002E003220D490A70002011E0F7
:102F200004E001220A490A7000200BE003E00122BC
:102F300009490A6005E0BDF80410491CADF8041009
:102F40007EE70120DDF800E004B07047C4030020F4
:102F5000AB030020801B0020841B002081B0411C9B
:102F600009780A0292B20178511888B201B070470C
:102F700081B0CDF800E008B413460A46C1B2044857
:102F8000FDF73CFE01B0DDF800E001B0704700BF86
:102F90000060004081B0124B1860831C1C78C31C79
:102FA0001B781B029BB2E4180E4B1C80031D1C787F
:102FB000431D1B781B029BB2E4180B4B1C80831D26
:102FC0001C780A4B1C800A4B19800A4B1A7001248A
:102FD000094B1C700024094B1C7001B0704700BFE6
:102FE000AC1B0020B01B0020B21B0020B41B002033
:102FF000B61B0020AB1B002001040020AA1B0020F0
:1030000082B0CDF800E0ADF804200AB201B2002988
:1030100004DB184B1B88994200D200E026E0002A0E
:1030200004DB154B1B889A4200D200E01EE0134CD3
:1030300023686FF34D33236003F0E8FE38B193B299
:103040008AB299B290B20E4C2468A04704E088B2CC
:1030500091B20C4C2468A047BDF804000A4C2468C7
:10306000A047064C236843F400532360DDF800E0DA
:1030700002B07047A21B0020A81B002014140240BD
:10308000E41B0020E81B0020EC1B002081B0C40AD8
:10309000A4B2E4000C704409A4B2A4001470C400EB
:1030A0001C7001B07047FFFF81B0C308DBB2DC02C7
:1030B000A4B28B08DBB25B019BB21C43A4B2D30861
:1030C000DBB244EA030398B201B0704785B0CDF893
:1030D00000E0049202460391FDF770FD530AC41804
:1030E000019440F2FF1302EA0303ADF808301E4BCF
:1030F0001B685B1C9C4206D11C48FEF753FB019CDD
:10310000194B1C6014E0184B1C68019BA3420FD0A4
:10311000154B1B68B3F1FF3F01D0FEF7FDFD019891
:10312000FEF718FC1148FEF73DFB019C0E4B1C609E
:10313000BDF80830C3F50074A4B2039BA34207D9BD
:10314000BDF80830C3F50074A4B2049B1C6002E013
:10315000039C049B1C60BDF80840044B1B191846D7
:10316000DDF800E005B07047DC00002040170020CB
:1031700091B0CDF800E0ADF838001046ADF83C1045
:103180008DF84030984C079400F20A040894079C8C
:10319000A51C2C78ADF80A406E1C34782502ADB21F
:1031A000BDF80A406419ADF80A40751C2C78ADF8DA
:1031B00008406E1C34782502ADB2BDF80840641991
:1031C000ADF80840741C07940DF11606247834807D
:1031D000079C641C079424782502ADB234886419D6
:1031E0003480079C641C0794B51C24782C80079CB1
:1031F000641CB61C24782502ADB23488641934806E
:10320000BDF83850794C2488641BADF80C40BDF8EB
:103210003C50774C2488641BADF80E40BDF8084044
:10322000E408A4B20D94BDF8084004F00704A4B269
:1032300014B10D9C641C0D946E4D2C686FF34D34CD
:103240002C600024ADF81240BDF80A50BDF81240C1
:10325000AC4280F0BF80089C0C94BDF80E50BDF8C5
:103260001240AC4200F2B080614C2588BDF83C4071
:10327000AC4280F0A98000248DF815409DF84050A4
:103280009DF81540AC4280F09F800C9C089403F0A0
:10329000BDFD98B19DF84050BDF808406543ADB202
:1032A000BDF838406419BDF83C30A2B2BDF83C10FE
:1032B000BDF83800504C2468A04706E0BDF83C102B
:1032C000BDF838004D4C2468A04700248DF81A4002
:1032D0000D9C099400240A94099C002C40F26980FA
:1032E0000BAC224609990898454C2468A0470790E2
:1032F0000B9D089C641908940B9D099C641B099400
:103300000B9CE4000B940024ADF810400B9DBDF81D
:103310001040AC424CD2BDF808500A9CAC4200D9D7
:1033200046E09DF81A404CB9079C24788DF8064079
:10333000079C641C079480248DF81A409DF8065061
:103340009DF81A402C40E4B234B10DF11604A41CCF
:103350002488ADF8044004E00DF116042488ADF88B
:1033600004400A9D0A9C641C0A94BDF80C40A542C6
:1033700013D800248DF814409DF840509DF8144057
:10338000AC420AD2BDF804001E4C2468A0479DF848
:103390001440641C8DF81440EEE79DF81A40640850
:1033A0008DF81A40BDF81040641CADF81040ADE730
:1033B00092E7BDF83C40641CADF83C409DF81540D8
:1033C000641C8DF8154059E7BDF81240641CADF837
:1033D000124039E7074D2C6844F400542C60DDF8A6
:1033E00000E011B0704700BFBC1B0020A21B0020F2
:1033F000A81B002014140240E41B0020E81B00203E
:10340000C81B0020EC1B002081B0CDF800E001219A
:103410003148017031480078C10031484018001D22
:103420000068304902F052FF28B110212E48017087
:10343000FF2040B24CE02D48FFF790FD2C4908805A
:103440002C4801782C4801802C48FFF787FD2C4937
:1034500008802C4801782C4801702C48FFF77EFD2D
:103460002B4908802B48FFF779FD2B4B18801B4810
:103470000078C1001A484018001D016820480088E3
:103480000A1826480260184601881F4800784843F9
:1034900080B21418224B1C601D480088410189B27B
:1034A000134A1088B1FBF0F080B221181D4801606A
:1034B0001046008841081C480180104600884109D8
:1034C0001A4801801846016819480160002040B27E
:1034D000DDF800E001B0704740190020C51A002057
:1034E000001B002040170020371A00204B17002037
:1034F000E81A00204D170020EA1A00204E1700207D
:10350000EC1A002050170020EE1A0020511700205E
:10351000F01A002056170020F21A0020F41A00209A
:10352000F81A0020FC1A0020301B0020321B00205B
:10353000241B002081B00A4681B200208DB21146C2
:10354000052805D20B1820221A70401CC0B2F7E7DC
:103550000B1800221A70401EC0B20C180A23B5FBCB
:10356000F3F203FB125292B2303222700A22B5FB00
:10357000F2F292B295B202B902E0401EC0B2ECE79C
:1035800001B0704702480168C1F3C000704700BF36
:103590001000024002480168C1F3C000704700BF3C
:1035A0001010024085B0CDF800E0824602918DF8FF
:1035B0000C208DF810305046FFF74CFA8DF81100B2
:1035C000C4B2102C02D910248DF8114001275146A5
:1035D0009DF80C40A7423FD2032404FB07F5029C50
:1035E000641901912046FFF735FA0199C2B240F201
:1035F000000C8A46F9B25FFA8CFB5FFA82FC9DF8F8
:103600001140A34523D20AEB0B06032404FB01F56A
:10361000029C64198DF804105FFA8CF23146204642
:10362000FEF760FE9DF8041058B99DF810400CB9E3
:10363000C8B212E09DF81040012C02D15FFA8BF065
:103640000BE00BF10104E0B25FFA80FBD7E74C1C02
:10365000E5B25146EFB2BBE70020DDF800E005B06F
:103660007047FFFF90B0CDF800E0ADF83400ADF842
:1036700038108DF83C3000248DF83040934C06947F
:10368000941D0794069CA51C2C78ADF806406E1C72
:1036900034782502ADB2BDF806406419ADF8064095
:1036A000751C2C78ADF804406C1C24782502ADB252
:1036B000BDF804406419ADF80440BDF83450844CA2
:1036C0002488641BADF81240BDF83850814C248822
:1036D000641BADF81440804D2C686FF34D342C60A2
:1036E0000024ADF80A40BDF80650BDF80A40AC42CF
:1036F00080F0E380079C0B94BDF81450BDF80A409D
:10370000AC4200F2D480734C2588BDF83840AC42FE
:1037100080F0CD8000248DF811409DF83C509DF83C
:103720001140AC4280F0C3800B9C079403F06EFB09
:1037300098B19DF83C50BDF804406543ADB2BDF86A
:1037400034406419BDF83830A2B2BDF83810BDF865
:103750003400624C2468A04706E0BDF83810BDF87C
:1037600034005F4C2468A047BDF804406400A4B254
:10377000089400240994089C002C40F28D800AAC27
:10378000224608990798574C2468A04706900A9D3E
:10379000079C641907940A9D089C641B08949DF873
:1037A00030406CB3069C24782502ADB2BDF80E40C3
:1037B0006419ADF80E40069C641C06940A9C641EB5
:1037C0000A9400248DF83040099D099C641C0994DA
:1037D000BDF81240A54213D800248DF810409DF882
:1037E0003C509DF81040AC420AD2BDF80E003E4C51
:1037F0002468A0479DF81040641C8DF81040EEE747
:103800000A9C04F0010414B101248DF830400A9C94
:1038100064080A940024ADF808400A9DBDF80840E9
:10382000AC4231D2069C2478ADF80C40069C661C54
:1038300034782502ADB2BDF80C406419ADF80C40E7
:10384000741C0694099D099C641C0994BDF81240DF
:10385000A54213D800248DF810409DF83C509DF8E7
:103860001040AC420AD2BDF80C001F4C2468A0479F
:103870009DF81040641C8DF81040EEE7BDF808403C
:10388000641CADF80840C8E79DF830401CB1069CA8
:103890002478ADF80E406EE7BDF83840641CADF8F2
:1038A00038409DF81140641C8DF8114035E7BDF893
:1038B0000A40641CADF80A4015E7074D2C6844F433
:1038C00000542C60DDF800E010B07047BC1B0020F5
:1038D000A21B0020A81B002014140240E41B00209F
:1038E000E81B0020C81B0020EC1B002099B0CDF87D
:1038F00000E0ADF85800ADF85C108DF860309C4CDD
:103900000E94941D10940E9CA51C2C78ADF80640C6
:103910006E1C34782502ADB2BDF806406419ADF8CE
:103920000640751C2C78ADF804406C1C24782502E8
:10393000ADB2BDF804406419ADF80440BDF858506C
:103940008C4C2488641BADF80E40BDF85C508A4C4A
:103950002488641BADF81040202412940DF1160445
:103960000F94129C002C24D913AC22461299109863
:10397000824C2468A0470E9000241494139D149C3C
:10398000AC420DD20E9C25780F9C25700E9C641CB9
:103990000E940F9C641C0F94149C641C1494EDE70B
:1039A000139D129C641B1294139D109C6419109417
:1039B000D7E7BDF804406408A4B21594159C04F040
:1039C000010414B1159C641C15946D4D2C686FF3A3
:1039D0004D342C600024ADF80C40BDF80650BDF805
:1039E0000C40AC4280F0BA80109C1494BDF810508A
:1039F000BDF80C40AC4200F2AB805F4C2588BDF8AE
:103A00005C40AC4280F0A48000248DF814409DF806
:103A100060509DF81440AC4280F09A80149C109441
:103A200003F0F4F998B19DF86050BDF80440654387
:103A3000ADB2BDF858406419BDF85C30A2B2BDF813
:103A40005C10BDF858004F4C2468A04706E0BDF854
:103A50005C10BDF858004C4C2468A047159C11948C
:103A600000241294119C002C40F2678013AC224673
:103A700011991098414C2468A0470E90139D109CFA
:103A800064191094139D119C641B1194139C640081
:103A900013940024ADF80A40139DBDF80A40AC42CF
:103AA0004AD2BDF80450129CAC4200D944E0BDF8A3
:103AB0000A4004F00104A4B264B19DF8124004F07D
:103AC0000F04E4B20DF1160564002C192488ADF83A
:103AD00008400FE00E9C25788DF812500E9C641C57
:103AE0000E942C09E4B20DF1160564002C192488FB
:103AF000ADF80840129D129C641C1294BDF80E4053
:103B0000A54213D800248DF813409DF860509DF80D
:103B10001340AC420AD2BDF808001C4C2468A047F0
:103B20009DF81340641C8DF81340EEE7BDF80A4081
:103B3000641CADF80A40AFE794E7BDF85C40641C34
:103B4000ADF85C409DF81440641C8DF814405EE7AD
:103B5000BDF80C40641CADF80C403EE7084D2C68E5
:103B600044F400542C60DDF800E019B0704700BF49
:103B7000BC1B0020A21B0020A81B0020C81B00208B
:103B800014140240E41B0020E81B0020EC1B002062
:103B9000ADF23C2DCDF800E0ADF830021046ADF8A6
:103BA00034128DF83832864C8A94841D85948A9C10
:103BB000A51C2C78ADF808406E1C34782502ADB2F7
:103BC000BDF808406419ADF80840751C2C78ADF8B4
:103BD00006406C1C24782502ADB2BDF8064064197D
:103BE000ADF80640BDF83052764C2488641BADF821
:103BF0000E40BDF83452744C2488641BADF810405C
:103C000040F20024879405AC8B94879C002C24D927
:103C100088AC2246879985986C4C2468A0478A9086
:103C200000248994889D899CAC420DD28A9C257879
:103C30008B9C25708A9C641C8A948B9C641C8B943E
:103C4000899C641C8994EDE7889D879C641B8794FC
:103C5000889D859C64198594D7E75D4D2C686FF32A
:103C60004D342C600024ADF80C40BDF80850BDF870
:103C70000C40AC4280F09980859C8994BDF810502E
:103C8000BDF80C40AC4200F28A804F4C2588BDF84C
:103C90003442AC4280F0838000248DF813409DF8BC
:103CA00038529DF81340AC4280F07980899C85940D
:103CB00003F0ACF898B19DF83852BDF80640654362
:103CC000ADB2BDF830426419BDF83432A2B2BDF8CD
:103CD0003412BDF830023F4C2468A04706E0BDF81E
:103CE0003412BDF830023C4C2468A047BDF80640B1
:103CF000869400248794869C002C45D988AC224663
:103D000086998598314C2468A0478A90889D859C27
:103D100064198594889D869C641B86940024ADF864
:103D20000A40889DBDF80A40AC422CD28A9C247877
:103D300005AD64002C192488ADF804408A9C641CED
:103D40008A94879D879C641C8794BDF80E40A54289
:103D500013D800248DF812409DF838529DF8124077
:103D6000AC420AD2BDF804001C4C2468A0479DF860
:103D70001240641C8DF81240EEE7BDF80A40641C46
:103D8000ADF80A40CDE7B6E7BDF83442641CADF8A3
:103D900034429DF81340641C8DF813407FE7BDF852
:103DA0000C40641CADF80C405FE7094D2C6844F4EE
:103DB00000542C60DDF800E00DF23C2D704700BF90
:103DC000BC1B0020A21B0020A81B0020C81B002039
:103DD00014140240E41B0020E81B0020EC1B002010
:103DE00002480168C1F34010704700BF100C024048
:103DF00081B0CDF800E085B21449097849B9144979
:103E00000022084640F20001FFF7C4F801220F49E2
:103E10000A70104909888D4201D2002011E00E4934
:103E200009888D4201D900200BE00A490988691AE6
:103E300089B28A0092B2094909680831891809785B
:103E4000C8B2DDF800E001B0704700BF01040020F7
:103E500024890108B01B0020B21B0020AC1B0020ED
:103E600002480168C1F30030704700BF10040240EF
:103E700002480168C1F34010704700BF10000240C3
:103E800081B0C11C09780A02811C097851180A0204
:103E9000411C097851180A0201785118084601B0EE
:103EA0007047FFFF81B0CDF800E00F4909888842D4
:103EB00000D215E00D490988884200D910E00A496E
:103EC0000988411A89B28A0092B209490968083101
:103ED00089180846042101F0A7FB06480178C8B2FA
:103EE000DDF800E001B07047B01B0020B21B0020DD
:103EF000B81B0020BC1B00208AB0CDF800E040F2C7
:103F00000001ADF8241000218DF82610B54909886C
:103F1000884200D262E1B4490988884200D95DE153
:103F2000B0490988411A89B28A0092B2AF4909683A
:103F3000083189180846042101F076FBAC48037863
:103F40008DF82730411C0978CAB2811C0978090212
:103F50005218C11C097809045218A4490968891823
:103F60000491DA08D2B2A3490988514389B2069173
:103F700003F00701C9B221B19E490A880699891840
:103F800006910699089105AC2246069904989A4C28
:103F90002468A0470446059A049989180491059A53
:103FA0000699891A0691002107919449097821B14F
:103FB00092490978022900D08CE091490988ADF82E
:103FC0000A1000218DF8091020468A490A889DF8B8
:103FD0000910914280F070808A490988ADF8241058
:103FE00000218DF80C1000218DF8081004469DF872
:103FF00027209DF80810914252D29DF80C1059BB11
:104000000799491C0791089A059991421BD2059A74
:104010000799914215D90121079105AC22460699CD
:104020000498754C2468A047044606990891059A9F
:10403000049989180491059A0699891A06912046CF
:1040400000E0204600E0204601788DF82610401C54
:1040500001218DF80C1000E020469DF80C209DF801
:1040600026101140C9B251B16749098801908AB23E
:10407000BDF80A10BDF82400FEF7C2FF0198BDF894
:104080002410491CADF824109DF80C1049008DF83F
:104090000C109DF80810491C8DF808100446A6E77E
:1040A000BDF80A10491CADF80A109DF80910491C0A
:1040B0008DF80910204688E75049097829B9BDF8DC
:1040C00024104A1C4F490A8003E0BDF80A204C49DD
:1040D0000A8083E04B490988ADF80A1000218DF869
:1040E0000910204643490A889DF80910914280F042
:1040F000708043490988ADF8241000218DF80C1018
:1041000000218DF8081004469DF827209DF808101E
:10411000914252D29DF80C1059BB0799491C079146
:10412000089A059991421BD2059A0799914215D98F
:104130000121079105AC2246069904982E4C24686B
:10414000A047044606990891059A04998918049194
:10415000059A0699891A0691204600E0204600E05B
:10416000204601788DF82610401C01218DF80C1096
:1041700000E020469DF80C209DF826101140C9B2A1
:1041800051B12149098801908AB2BDF82410BDF8C7
:104190000A00FEF735FF0198BDF82410491EADF85E
:1041A00024109DF80C1049008DF80C109DF8081093
:1041B000491C8DF808100446A6E7BDF80A10491CF2
:1041C000ADF80A109DF80910491C8DF80910204619
:1041D00088E7BDF824104A1E09490A80DDF800E08E
:1041E0000AB07047B01B0020B21B0020B81B002093
:1041F000BC1B0020B41B0020C81B0020AB1B0020F0
:10420000C61B0020CC1B0020B61B002088B0CDF8B8
:1042100000E0ADF81800ADF81C1015B299B2A8B2C4
:1042200005F0F2F9BDF91840AC4207D1BDF91820EC
:1042300019B2BDF91C0001F0A3FB2AE1BDF91C4035
:104240009C4207D1BDF91C2029B2BDF9180001F02C
:10425000CBFA1EE10024ADF81240BDF918402C1B2A
:1042600024B2ADF80840002C0ADABDF908406442D7
:10427000ADF80840BDF81240641EADF8124004E0ED
:10428000BDF81240641CADF812400024ADF8144093
:10429000BDF91C401C1B24B2ADF80A40002C0ADA00
:1042A000BDF90A406442ADF80A40BDF81440641EEE
:1042B000ADF8144004E0BDF81440641CADF814409F
:1042C0000024ADF81640BDF90A50BDF90840AC42D3
:1042D00046DABDF81640641CADF81640BDF908007A
:1042E000BDF90A40ADF80840ADF80A00BDF9180064
:1042F000BDF91C40ADF81840ADF81C00BDF8120027
:10430000BDF81440ADF81240ADF8140040F2010AB7
:104310005FFA8AF0614C2478A04220D8C1B201F043
:10432000010424B21CB94A4212B211B2FFE74E1086
:1043300036B25B4C2588BDF91C40A4198DF80400E9
:10434000AAB2BDF9181020B2FEF75AFE9DF804007B
:1043500000F1010A5FFA8AFA5FFA8AF0DAE727E0E9
:1043600040F2010A5FFA8AF04C4C2478A0421FD830
:10437000C1B201F0010424B21CB94C4222B211B204
:10438000FFE74E1036B2464C2588BDF91C40A419F3
:104390008DF80400AAB221B2BDF91800FEF730FE74
:1043A0009DF80400441C5FFA84FA5FFA8AF0DBE7A8
:1043B000BDF908406400ADF81040BDF90A40650041
:1043C0002DB2ADF80E50BDF908402C1BADF80C40D5
:1043D000BDF90840641E24B2ADF80840002C58DB3B
:1043E000BDF90C40002C0DDBBDF81450BDF91C408C
:1043F0006419ADF81C40BDF91050BDF90C40641BA8
:10440000ADF80C40BDF81250BDF918406419ADF874
:104410001840BDF90E50BDF90C406419ADF80C40C0
:1044200001201E4C2478A04232D8C5B205F0010408
:1044300024B214B9694209B200E029B2491009B2A4
:10444000BDF816407CB1164C2588BDF91C40641897
:104450008DF80400AAB2BDF9181020B2FEF7D0FD05
:104460009DF804000EE00E4C2588BDF91C40641830
:104470008DF80400AAB221B2BDF91800FEF7C0FD04
:104480009DF80400441C5FFA84F85FFA88F0C8E7DE
:104490009EE7DDF800E008B0704700BFDC1B00209D
:1044A000DA1B002002480168C1F34000704700BFDA
:1044B0001014024089B0CDF800E0ADF81800ADF856
:1044C0001C108DF82030E24E34788DF81440E14D08
:1044D0002C88ADF8164001243470DF4C24882C80E1
:1044E000BDF91840A41A24B2641CADF80C40BDF903
:1044F0001840A41824B2641EADF80E40BDF91C404B
:10450000A41A24B2641CADF81040BDF91C40A418D4
:1045100024B2641EADF81240002424B2ADF8084065
:10452000BDF91850BDF91C40641BADF80A40ADF848
:104530000620540024B2C4F10304ADF80440BDF9D0
:104540000640651C2DB2BDF90840AC4280F29B824A
:10455000C24C2478002C00F0AE81C14C2478002C91
:1045600040F0CD80BDF91050BDF91240671BBDF978
:104570000650BDF91C4065192DB2BDF910402E1B27
:10458000B84C2588B84C2488BBB2B2B2A9B2A0B24C
:1045900001F0BAFA012105F043F8BDF90650BDF962
:1045A0001C406719BDF90850BDF91840661BBDF9DC
:1045B0000850BDF9184064193AB231B220B201F086
:1045C00013F9BDF91050BDF91240671BBDF9065033
:1045D000BDF91C40651B2DB2BDF910402E1BA14C2E
:1045E0002588A14C2488BBB2B2B2A9B2A0B201F016
:1045F0008BFA012105F014F8BDF90650BDF91C40F5
:10460000671BBDF90850BDF91840661BBDF908507D
:10461000BDF9184064193AB231B220B201F0E4F8A1
:10462000BDF91050BDF91240671BBDF90850BDF926
:104630001C4065192DB2BDF910402E1B894C2588F0
:10464000894C2488BBB2B2B2A9B2A0B201F05CFA24
:10465000012104F0E5FFBDF90850BDF91C406719C0
:10466000BDF90650BDF91C40651B2DB2BDF90A40CD
:104670002E1BBDF90650BDF91C4065192DB2BDF9C0
:104680000A402C1B3AB231B220B201F0ADF8BDF9AC
:104690001050BDF91240671BBDF90850BDF91C4010
:1046A000651B2DB2BDF910402E1B6E4C25886E4C3B
:1046B0002488BBB2B2B2A9B2A0B201F025FA01219E
:1046C00004F0AEFFBDF90850BDF91C40671BBDF9F1
:1046D0000650BDF91C40651B2DB2BDF90A402E1BCA
:1046E000BDF90650BDF91C4065192DB2BDF90A404F
:1046F0002C1B3AB231B220B201F076F8DAE0BDF903
:104700000C50BDF90E40671BBDF90850BDF91840AB
:1047100065192DB2BDF90C402E1B524C2588524C08
:104720002488BBB2B2B2A9B2A0B201F0EDF9012166
:1047300004F076FFBDF90850BDF918406719BDF9BE
:104740000650BDF91C40661BBDF90650BDF91C4062
:1047500064193AB231B220B201F012F9BDF90C502D
:10476000BDF90E40671BBDF90850BDF91840651B27
:104770002DB2BDF90C402E1B3A4C25883A4C2488AA
:10478000BBB2B2B2A9B2A0B201F0BEF9012104F0ED
:1047900047FFBDF90850BDF91840671BBDF9065029
:1047A000BDF91C40661BBDF90650BDF91C406419DB
:1047B0003AB231B220B201F0E3F8BDF90C50BDF9C4
:1047C0000E40671BBDF90650BDF91C4065192DB29E
:1047D000BDF90A402D1B2DB2BDF90C402E1B214CFA
:1047E0002588214C2488BBB2B2B2A9B2A0B201F094
:1047F0008BF9012104F014FFBDF90650BDF91C40EE
:1048000065192DB2BDF90A402F1BBDF90850BDF93D
:104810001C40661BBDF90850BDF91C4064193AB232
:1048200031B220B201F0ACF8BDF90C50BDF90E4028
:10483000671BBDF90650BDF91C40651B2DB2BDF9C3
:104840000A402D1B2DB2BDF90C402E1B054C0DE06E
:10485000DC1B0020DA1B0020D61B0020D81B002008
:10486000DD1B0020E01B0020DE1B002025888C4C77
:104870002488BBB2B2B2A9B2A0B201F045F90121BD
:1048800004F0CEFEBDF90650BDF91C40651B2DB2EB
:10489000BDF90A402F1BBDF90850BDF91C40661B2D
:1048A000BDF90850BDF91C4064193AB231B220B2CA
:1048B00001F066F8BCE09DF82040002C58D1BDF90D
:1048C0000850BDF918406719BDF90650BDF91C40E4
:1048D000661BBDF90650BDF91C4064193AB231B2ED
:1048E00020B201F04DF8BDF90850BDF91840671B22
:1048F000BDF90650BDF91C40661BBDF90650BDF957
:104900001C4064193AB231B220B201F039F8BDF955
:104910000650BDF91C4065192DB2BDF90A402F1B88
:10492000BDF90850BDF91C40661BBDF90850BDF922
:104930001C4064193AB231B220B201F021F8BDF93D
:104940000650BDF91C40651B2DB2BDF90A402F1B56
:10495000BDF90850BDF91C40661BBDF90850BDF9F2
:104960001C4064193AB231B220B201F009F85FE09C
:10497000BDF90650BDF91C406719BDF90850BDF9D5
:104980001840661BBDF90850BDF9184064193AB2C9
:1049900031B220B200F028FFBDF90650BDF91C402D
:1049A000671BBDF90850BDF91840661BBDF90850DA
:1049B000BDF9184064193AB231B220B200F014FFC8
:1049C000BDF90850BDF91C406719BDF90650BDF985
:1049D0001C40651B2DB2BDF90A402E1BBDF90650C7
:1049E000BDF91C4065192DB2BDF90A402C1B3AB225
:1049F00031B220B200F0F8FEBDF90850BDF91C40FC
:104A0000671BBDF90650BDF91C40651B2DB2BDF9F1
:104A10000A402E1BBDF90650BDF91C4065192DB288
:104A2000BDF90A402C1B3AB231B220B200F0DCFED4
:104A3000BDF90440002C0BDABDF90840A40024B2F3
:104A4000A51D2DB2BDF904406419ADF8044014E071
:104A5000BDF90650BDF90840641B24B2A40024B27D
:104A600004F20A052DB2BDF904406419ADF8044002
:104A7000BDF90640641EADF80640BDF90840641C4F
:104A8000ADF808405BE59DF81450064C2570BDF864
:104A90001650054C2580DDF800E009B0704700BFD6
:104AA000DE1B0020DC1B0020DA1B002086B0CDF8C6
:104AB00000E087B240F2000500267249097849B942
:104AC00071490022084640F20001FEF763FA012214
:104AD0006C490A706D4909888F4200D2CEE06C495A
:104AE00009888F4200D9C9E068490988791A89B2D2
:104AF0008A0092B2674C216808318B181878591CCB
:104B00000978CAB2991C097809025218D91C097887
:104B100009045218214609688C185F49097821B1A7
:104B20005D490978022900D057E05C490B880022D2
:104B3000A046ACB25A4909888A4244D259490D88E4
:104B400000270024844238D22FB998F8006008F179
:104B500001080127FFE706EA0701C9B231B352494C
:104B600009888DF80460CDF808808DF80C708DF8F8
:104B70000D20ADF80E308DF81000ADF812508DF804
:104B800014408AB219B228B2FEF73AFA9DF81440DE
:104B9000BDF812509DF81000BDF80E309DF80D20A4
:104BA0009DF80C70DDF808809DF804606D1CADB2B6
:104BB0007900CFB2641CE4B2C4E75B1C9BB2521C08
:104BC000D2B2ACB2B6E73449097819B9621C35499A
:104BD0000A8001E031490B8050E032490B88002205
:104BE0002F4909888A4246D22C490D880027002186
:104BF000A046CCB2844238D22FB998F8006008F1B0
:104C000001080127FFE706EA0701C9B231B32649C7
:104C100009888DF80460CDF808808DF80C708DF847
:104C20000D20ADF80E308DF81000ADF812508DF853
:104C300014408AB229B218B2FEF7E2F99DF8144086
:104C4000BDF812509DF81000BDF80E309DF80D20F3
:104C50009DF80C70DDF808809DF804606D1EADB203
:104C60007900CFB2641CE4B2C4E75B1C9BB2521C57
:104C7000D2B24446B4E76A1E08490A80DDF800E073
:104C800006B070470104002024890108B01B0020F1
:104C9000B21B0020AC1B0020AB1B0020C61B002059
:104CA000B41B0020CC1B0020B61B0020024801686A
:104CB000C1F30000704700BF1014024081B00446E9
:104CC00040F20000ADF8002082B20846BDF80010A6
:104CD00059B183181B782370237813B1521C92B2F8
:104CE000FFE7641C491E89B2F2E701B07047FFFF7D
:104CF00002480168C1F3C030704700BF100C024089
:104D000002480168C1F34010704700BF1004024020
:104D100002480168C1F38010704700BF10000240D4
:104D200002480168C1F3C000704700BF1000024094
:104D300002480168C1F34010704700BF100C0240E8
:104D400002480168C1F34000704700BF10140240E0
:104D500002480168C1F34010704700BF10000240D4
:104D600002480168C1F30000704700BF100802400C
:104D700002480168C1F30000704700BF1004024000
:104D800002480168C1F30000704700BF10140240E0
:104D900002480168C1F30000704700BF10140240D0
:104DA00002480168C1F3C030704700BF10040240E0
:104DB00002480168C1F3C010704700BF10140240E0
:104DC00002480168C1F3C000704700BF10080240EC
:104DD00002480168C1F3C030704700BF10000240B4
:104DE00002480168C1F34010704700BF1000024044
:104DF00081B0CDF800E004462046FDF72BFEC5B299
:104E0000204606F091FE0124EBB20D4909888C4240
:104E100011D222010B4989180988994208D122012F
:104E200008498918091D0968814201D1A0B203E02F
:104E3000641CA4B2E9E70020DDF800E001B070478F
:104E40001C0400202004002002480168C1F3001067
:104E5000704700BF1010024002480168C1F3001003
:104E6000704700BF1000024081B0014640F20005CB
:104E70002DB208460C460B46FFE70178202901D1E8
:104E800005B904E001252DB201782170641C0246A9
:104E9000401C11780029F0D1184601B07047FFFF7F
:104EA00081B00091014600980B461C465A1C1546DD
:104EB0000346421C10461A78227022780AB12B460B
:104EC000F3E7084601B0704781B003461A780AB18B
:104ED0005B1CFBE71C465A1C15460B464A1C114638
:104EE0001A78227022780AB12B46F3E701B0704796
:104EF00002480168C1F30000704700BF1010024073
:104F000002480168C1F38010704700BF10000240E2
:104F100002480168C1F34010704700BF100402400E
:104F200002480168C1F30030704700BF100C024016
:104F300042F6FB47C0F231177F1EFDD100BF00BF14
:104F400000BF00BF7047FFFF81B0CDF800E041F225
:104F50001440C4F202004FF001014FEA8131284AA7
:104F600089B203F035FC274908686FF38E3008607A
:104F700041F21440C4F202004FF001014FEAC13186
:104F80001F4A89B203F024FC1F49086840F400401E
:104F9000086041F21440C4F202004FF001014FEAF0
:104FA0004131174A89B203F013FC1849086840F4EC
:104FB0000050086041F21440C4F202004FF00101B9
:104FC0004FEA01310E4A89B203F002FC41F214406B
:104FD000C4F202004FF001014FEAC121084A89B230
:104FE00003F0F6FB0A49086840F48050086009495C
:104FF000086840F400600860DDF800E001B0704728
:105000001400080014140240141402401414024046
:10501000141402401414024082B0CDF800E084B2AF
:1050200016490988B4FBF1F189B288B214490968BC
:105030004318012213490A70ADF80440124918467A
:1050400001F044F9BDF8044028B110220F490A705C
:105050004FF6FF700DE009490A88B4FBF2F102FB3C
:10506000114189B24A0092B2074989180846FDF7F2
:1050700075FFDDF800E002B0704700BF301B002074
:10508000F41A00204019002040170020371A002091
:1050900086B0CDF800E00390049105924C2000F01A
:1050A000CFF908B901203BE01F4C2468A04701ACB0
:1050B0004D2323701D4B1B785B0801222146D8B27B
:1050C0004FF000031A4C2468A04701AC174B1B7823
:1050D0005B0805222146D8B24FF00103154C246825
:1050E000A047039B43B101AD6B1C1C782B781B02BE
:1050F0009BB2E418039B1C80049B4BB101ADEB1CDD
:105100001C78AB1C1B781B029BB2E418049B1C8010
:10511000059B23B101AB1B1D1C78059B1C70002057
:10512000DDF800E006B07047601A0020A01B0020E8
:10513000681A0020641A002001480078704700BFF8
:105140000A0400202416002042F20977C0F200076A
:105150007F1EFDD100BF00BF00BF00BF00BF00BF6A
:105160007047FFFF87B0CDF800E0049005910692EC
:10517000049B1A331846FDF7F1FE069B1880069B28
:105180001B88B3B9FCF75CFE069B1880069B1C8845
:105190004FF6FF739C4205D10424674B1C70FF201F
:1051A00040B2C5E0069B1B884FF6FF7198B2FCF732
:1051B000D1FD069B1B889C1E604B1B885C43604B8B
:1051C0001B681C19059B1C605E4B1C685E4B1B68B2
:1051D000A34204D15D4B1B88ADF80A3006E05C4B5E
:1051E0001C88564B1B886343ADF80A30564B1B682E
:1051F0000393584801900398FCF7ACFB0124564BED
:105200001C705448FCF7CEFA01980023ADF8083022
:105210000146BDF80A40BDF80830A34280F07A800C
:105220000B78E52B03D00B78202B00D35AE00191AB
:10523000FCF772FD019928B110243F4B1C70FF2030
:1052400040B275E00191202212B20846049900F0A4
:10525000B1FA019901F21A04069B1B8803F0FF03BF
:10526000237001F21A035C1C069B1B881B0A237027
:1052700001F20E04394B1B78237001F20E035C1C03
:10528000374E3378237001F21004364B1B782370AD
:1052900001F210035C1C344D2B78237001F21604CC
:1052A0002E4B1B78237001F216035C1C33461B78CF
:1052B000237001F218042B4B1B78237001F21803A2
:1052C0005C1C2B461B78237022490398FBF76AFC71
:1052D00028B10524184B1C70FF2040B228E00020A4
:1052E00040B225E001F220042746204B1B689C4277
:1052F00009D1039B5B1C0393164F01971548FCF7DC
:1053000051FA019FFFE7BDF808305B1CADF808308B
:1053100039467EE7FCF700FD28B11024064B1C70CF
:10532000FF2040B204E00624034B1C70FF2040B273
:10533000DDF800E007B07047371A0020EA1A0020B5
:10534000FC1A0020F81A0020241B0020F01A00206C
:10535000321B002040170020401900202C1B002089
:105360002D1B00202E1B00202F1B0020201B0020A7
:1053700002480168C1F38030704700BF100402404A
:1053800081B00248007801B0704700BF05040020DA
:1053900002480168C1F34010704700BF100402408A
:1053A00002480168C1F38010704700BF100002403E
:1053B00002480168C1F34010704700BF100002406E
:1053C00002480168C1F38010704700BF1008024016
:1053D00002480168C1F3C010704700BF10080240C6
:1053E00002480168C1F38010704700BF10100240EE
:1053F00002480168C1F30000704700BF101402406A
:1054000002480168C1F34000704700BF1014024019
:1054100002480168C1F34010704700BF100C024001
:1054200002480168C1F38030704700BF100C024091
:1054300002480168C1F34010704700BF10040240E9
:1054400083B0CDF800E0134C24688DF80400A04729
:105450009DF8040002AA10700F49097849084FF01E
:105460000003C8B2114601220C4C2468A04702AACE
:105470000949097849084FF00103C8B211460122D1
:10548000074C2468A04702A90978C8B2DDF800E0FB
:1054900003B07047601A0020A01B0020681A00208B
:1054A000641A002002480168C1F34010704700BF31
:1054B0001010024002480168C1F3C000704700BFED
:1054C0001000024002480168C1F38000704700BF2D
:1054D0001010024002480168C1F38000704700BF0D
:1054E0001014024002480168C1F34030704700BF09
:1054F000100C024002480168C1F34010704700BF21
:105500001004024002480168C1F38010704700BFD8
:105510001000024002480168C1F34010704700BF0C
:10552000100C024002480168C1F3C000704700BF80
:105530001000024002480168C1F34000704700BFFC
:105540001010024082B0CDF800E0002504460B4662
:105550000D2D0BD2621901925A191278D0B2FCF7B4
:105560006DFA019A10706D1CEDB2F1E7DDF800E004
:1055700002B0704702480168C1F34000704700BFA5
:105580001014024081B0CDF800E004462046FCF73C
:1055900039F9C2B2C1B211B9FF2040B240E00C2AC1
:1055A00002D9FE2040B23BE021782E2902D1FD2015
:1055B00040B235E0002676B22546D3B2D0B22246BC
:1055C000002B12D9D11809782E290BD1012464B2ED
:1055D000082B02D9FC2040B222E0591C09B2521813
:1055E00063B204E05B1EDBB2EAE72A4673B2012B2A
:1055F00004D0082802D9FB2040B211E0012B0DD1C4
:105600001046FCF7FFF8C2B2C1B211B9F52040B2A2
:1056100006E0032A02D9F42040B201E0002040B2A3
:10562000DDF800E001B0704785B0CDF800E0154D21
:105630000346002922D904AC0193ADF80810039564
:1056400022461846104C2468A047039DBDF8081058
:10565000019B04460020BDF81020904206D222781B
:105660002A706D1C641C401C80B2F4E7BDF8102049
:10567000891A89B2BDF810209B18DAE7DDF800E03E
:1056800005B07047BC1B0020C81B002086B0CDF8B9
:1056900000E003900491039A12B9FF2040B272E037
:1056A0000398FCF763F93A4A13683A4A12689A4237
:1056B00004D1394A1288ADF8062006E0374A13882B
:1056C000374A12885A43ADF80620324A12680592CA
:1056D000344A02920598FCF73DF90123324A1370CF
:1056E0003048FCF75FF80022ADF80420BDF8063022
:1056F000BDF804209A423BD20B2212B203990298C1
:10570000FCF7ACF9F0B9FCF707FB28B11023274AE6
:105710001370FF2040B236E0049A82B104990298D7
:10572000FCF72EFA049A02F22403059A1A60049AEE
:1057300002F22804029B1B4A9A1A52092280002076
:1057400040B220E0029A02F220030293184A126843
:10575000934207D1059A521C0592124A02921148AF
:10576000FCF720F8BDF80420521CADF80420BDE77A
:10577000FCF7D2FA28B110230C4A1370FF2040B274
:1057800001E0FF2040B2DDF800E006B0704700BF46
:10579000F81A0020241B0020F01A0020321B0020E1
:1057A000EA1A00204017002040190020371A002074
:1057B000201B002081B00B46014618460D4614B24E
:1057C000531E1AB224B103782B706D1C401CF6E7EF
:1057D000084601B07047FFFF02480168C1F340105E
:1057E000704700BF1000024086B0CDF800E0ADF871
:1057F0000C00ADF81010ADF81420BDF91040BDF943
:105800000C30A34207DDBDF90C00BDF91030ADF836
:105810000C30ADF81000BDF90C30002B04DA002379
:105820001BB2ADF80C3006E04C4B1C88BDF90C30B7
:10583000A34200D38EE0BDF91030002B00DA89E0DE
:10584000464B1C88BDF91030A34204D3434B1B8840
:105850005B1EADF8103001238DF80830404B1C78EA
:105860009DF80830A34200F275809DF8080000F012
:1058700001031BB21BB9414209B208B2FFE7441051
:1058800024B221B2BDF914301B191BB2002B08DB66
:10589000BDF914305C1824B2324B1B889C4200D2F4
:1058A00000E051E0304B1B78002B37D12F4C2368A0
:1058B0006FF34D33236001F0A9FA60B1BDF91430E4
:1058C0005C18A3B2BDF91020A1B2BDF90C00284CA0
:1058D0002468A04708E0BDF914305C18A1B2BDF9F6
:1058E0000C00244C2468A047BDF90C00BDF9103011
:1058F00098420DD8204B1C88ADF80400A0B21F4C74
:105900002468A047BDF80400411C89B288B2EDE7C5
:10591000164C236843F40053236015E0BDF90C00D6
:10592000BDF9103098420FD8134B1B88ADF8040016
:105930009AB2BDF9141000B2FDF762FBBDF8040085
:10594000431C99B288B2EBE79DF808305B1C8DF8D8
:10595000083083E7DDF800E006B07047A21B0020A6
:10596000DC1B0020A81B00200604002014140240A9
:10597000E41B0020E81B0020DA1B0020EC1B0020A9
:1059800086B0CDF800E0ADF8041001B2BDF9040016
:10599000814203DD8BB201B218B2FFE7002902DABF
:1059A000002109B204E02F4B1B88994200D355E037
:1059B000002800DA52E02B4B1B88984205D3294B74
:1059C0001B885B1E18B203B200E003B2012015B2BF
:1059D0000AB219B2244B1B7898423FD8C4B204F0E3
:1059E00001031BB213B9644224B2FFE763101BB278
:1059F0001EB2EB181BB2002B06DBAC1924B21B4BFA
:105A00001B889C4200D200E025E097B28F4222D84A
:105A1000174B1C88AB198DF80400ADF80810ADF8D1
:105A20000C20ADF81050ADF81260ADF81470A2B2B1
:105A300039B218B2FDF7E4FABDF81470BDF912607E
:105A4000BDF91050BDF90C20BDF908109DF80400F7
:105A50007F1CBFB2DAE7401CC0B2BBE7DDF800E054
:105A600006B07047A81B0020DC1B0020A21B0020F2
:105A7000DA1B002081B0ADF800100146BDF800002F
:105A800001F21C021368C3F3C01202B9F8E701F275
:105A90002802106001B0704702480168C1F380001D
:105AA000704700BF1008024002480168C1F380102F
:105AB000704700BF1000024002480168C1F3400077
:105AC000704700BF1004024002480168C1F30000A3
:105AD000704700BF1014024002480168C1F3400043
